{
  "contractName": "Factory",
  "abi": [
    {
      "constant": false,
      "inputs": [
        {
          "name": "_ownerName",
          "type": "string"
        },
        {
          "name": "_id",
          "type": "string"
        },
        {
          "name": "_assetType",
          "type": "string"
        },
        {
          "name": "_area",
          "type": "uint8"
        },
        {
          "name": "_noOfTokens",
          "type": "uint256"
        }
      ],
      "name": "createChildLandCoin",
      "outputs": [],
      "payable": false,
      "stateMutability": "nonpayable",
      "type": "function"
    },
    {
      "constant": true,
      "inputs": [],
      "name": "getChildLandCoin",
      "outputs": [
        {
          "name": "",
          "type": "address[]"
        }
      ],
      "payable": false,
      "stateMutability": "view",
      "type": "function"
    }
  ],
  "bytecode": "0x608060405234801561001057600080fd5b5061209d806100206000396000f3fe608060405234801561001057600080fd5b50600436106100365760003560e01c806316a4997b1461003b57806338c272a11461009a575b600080fd5b61004361029a565b6040518080602001828103825283818151815260200191508051906020019060200280838360005b8381101561008657808201518184015260208101905061006b565b505050509050019250505060405180910390f35b610298600480360360a08110156100b057600080fd5b81019080803590602001906401000000008111156100cd57600080fd5b8201836020820111156100df57600080fd5b8035906020019184600183028401116401000000008311171561010157600080fd5b91908080601f016020809104026020016040519081016040528093929190818152602001838380828437600081840152601f19601f8201169050808301925050505050505091929192908035906020019064010000000081111561016457600080fd5b82018360208201111561017657600080fd5b8035906020019184600183028401116401000000008311171561019857600080fd5b91908080601f016020809104026020016040519081016040528093929190818152602001838380828437600081840152601f19601f820116905080830192505050505050509192919290803590602001906401000000008111156101fb57600080fd5b82018360208201111561020d57600080fd5b8035906020019184600183028401116401000000008311171561022f57600080fd5b91908080601f016020809104026020016040519081016040528093929190818152602001838380828437600081840152601f19601f820116905080830192505050505050509192919290803560ff16906020019092919080359060200190929190505050610328565b005b6060600080548060200260200160405190810160405280929190818152602001828054801561031e57602002820191906000526020600020905b8160009054906101000a900473ffffffffffffffffffffffffffffffffffffffff1673ffffffffffffffffffffffffffffffffffffffff16815260200190600101908083116102d4575b5050505050905090565b600085858585853060405161033c90610557565b808060200180602001806020018760ff1660ff1681526020018681526020018573ffffffffffffffffffffffffffffffffffffffff1673ffffffffffffffffffffffffffffffffffffffff16815260200184810384528a818151815260200191508051906020019080838360005b838110156103c55780820151818401526020810190506103aa565b50505050905090810190601f1680156103f25780820380516001836020036101000a031916815260200191505b50848103835289818151815260200191508051906020019080838360005b8381101561042b578082015181840152602081019050610410565b50505050905090810190601f1680156104585780820380516001836020036101000a031916815260200191505b50848103825288818151815260200191508051906020019080838360005b83811015610491578082015181840152602081019050610476565b50505050905090810190601f1680156104be5780820380516001836020036101000a031916815260200191505b509950505050505050505050604051809103906000f0801580156104e6573d6000803e3d6000fd5b50905060008190806001815401808255809150509060018203906000526020600020016000909192909190916101000a81548173ffffffffffffffffffffffffffffffffffffffff021916908373ffffffffffffffffffffffffffffffffffffffff16021790555050505050505050565b611b0d806105658339019056fe60806040523480156200001157600080fd5b5060405162001b0d38038062001b0d833981018060405260c08110156200003757600080fd5b8101908080516401000000008111156200005057600080fd5b828101905060208101848111156200006757600080fd5b81518560018202830111640100000000821117156200008557600080fd5b50509291906020018051640100000000811115620000a257600080fd5b82810190506020810184811115620000b957600080fd5b8151856001820283011164010000000082111715620000d757600080fd5b50509291906020018051640100000000811115620000f457600080fd5b828101905060208101848111156200010b57600080fd5b81518560018202830111640100000000821117156200012957600080fd5b505092919060200180519060200190929190805190602001909291908051906020019092919050505085600490805190602001906200016a929190620002c6565b50846003908051906020019062000183929190620002c6565b5083600790805190602001906200019c929190620002c6565b5082600660146101000a81548160ff021916908360ff1602179055508160058190555080600660006101000a81548173ffffffffffffffffffffffffffffffffffffffff021916908373ffffffffffffffffffffffffffffffffffffffff160217905550600554600060036040518082805460018160011615610100020316600290048015620002665780601f106200024357610100808354040283529182019162000266565b820191906000526020600020905b81548152906001019060200180831162000251575b5050915050908152602001604051809103902060008373ffffffffffffffffffffffffffffffffffffffff1673ffffffffffffffffffffffffffffffffffffffff1681526020019081526020016000208190555050505050505062000375565b828054600181600116156101000203166002900490600052602060002090601f016020900481019282601f106200030957805160ff19168380011785556200033a565b828001600101855582156200033a579182015b82811115620003395782518255916020019190600101906200031c565b5b5090506200034991906200034d565b5090565b6200037291905b808211156200036e57600081600090555060010162000354565b5090565b90565b61178880620003856000396000f3fe608060405234801561001057600080fd5b50600436106100f55760003560e01c806365ac232011610097578063a457c2d711610066578063a457c2d714610671578063aa2fddc7146106d7578063af640d0f146107d4578063dd62ed3e14610857576100f5565b806365ac2320146104975780636f4325811461051a5780637a27da79146106095780638f84aa0914610627576100f5565b80631fc38a8b116100d35780631fc38a8b1461026d578063395093511461038a5780633fe3347a146103f05780634d41892f14610473576100f5565b806304031852146100fa578063095ea7b3146101e957806318160ddd1461024f575b600080fd5b6101d36004803603604081101561011057600080fd5b810190808035906020019064010000000081111561012d57600080fd5b82018360208201111561013f57600080fd5b8035906020019184600183028401116401000000008311171561016157600080fd5b91908080601f016020809104026020016040519081016040528093929190818152602001838380828437600081840152601f19601f820116905080830192505050505050509192919290803573ffffffffffffffffffffffffffffffffffffffff1690602001909291905050506108cf565b6040518082815260200191505060405180910390f35b610235600480360360408110156101ff57600080fd5b81019080803573ffffffffffffffffffffffffffffffffffffffff1690602001909291908035906020019092919050505061097f565b604051808215151515815260200191505060405180910390f35b610257610996565b6040518082815260200191505060405180910390f35b6103706004803603608081101561028357600080fd5b81019080803590602001906401000000008111156102a057600080fd5b8201836020820111156102b257600080fd5b803590602001918460018302840111640100000000831117156102d457600080fd5b91908080601f016020809104026020016040519081016040528093929190818152602001838380828437600081840152601f19601f820116905080830192505050505050509192919290803573ffffffffffffffffffffffffffffffffffffffff169060200190929190803573ffffffffffffffffffffffffffffffffffffffff169060200190929190803590602001909291905050506109a0565b604051808215151515815260200191505060405180910390f35b6103d6600480360360408110156103a057600080fd5b81019080803573ffffffffffffffffffffffffffffffffffffffff16906020019092919080359060200190929190505050610a6d565b604051808215151515815260200191505060405180910390f35b6103f8610b12565b6040518080602001828103825283818151815260200191508051906020019080838360005b8381101561043857808201518184015260208101905061041d565b50505050905090810190601f1680156104655780820380516001836020036101000a031916815260200191505b509250505060405180910390f35b61047b610bb0565b604051808260ff1660ff16815260200191505060405180910390f35b61049f610bc3565b6040518080602001828103825283818151815260200191508051906020019080838360005b838110156104df5780820151818401526020810190506104c4565b50505050905090810190601f16801561050c5780820380516001836020036101000a031916815260200191505b509250505060405180910390f35b6105f36004803603604081101561053057600080fd5b810190808035906020019064010000000081111561054d57600080fd5b82018360208201111561055f57600080fd5b8035906020019184600183028401116401000000008311171561058157600080fd5b91908080601f016020809104026020016040519081016040528093929190818152602001838380828437600081840152601f19601f820116905080830192505050505050509192919290803573ffffffffffffffffffffffffffffffffffffffff169060200190929190505050610c61565b6040518082815260200191505060405180910390f35b610611610c9c565b6040518082815260200191505060405180910390f35b61062f610ca2565b604051808273ffffffffffffffffffffffffffffffffffffffff1673ffffffffffffffffffffffffffffffffffffffff16815260200191505060405180910390f35b6106bd6004803603604081101561068757600080fd5b81019080803573ffffffffffffffffffffffffffffffffffffffff16906020019092919080359060200190929190505050610cc8565b604051808215151515815260200191505060405180910390f35b6107ba600480360360608110156106ed57600080fd5b810190808035906020019064010000000081111561070a57600080fd5b82018360208201111561071c57600080fd5b8035906020019184600183028401116401000000008311171561073e57600080fd5b91908080601f016020809104026020016040519081016040528093929190818152602001838380828437600081840152601f19601f820116905080830192505050505050509192919290803573ffffffffffffffffffffffffffffffffffffffff16906020019092919080359060200190929190505050610d87565b604051808215151515815260200191505060405180910390f35b6107dc610da0565b6040518080602001828103825283818151815260200191508051906020019080838360005b8381101561081c578082015181840152602081019050610801565b50505050905090810190601f1680156108495780820380516001836020036101000a031916815260200191505b509250505060405180910390f35b6108b96004803603604081101561086d57600080fd5b81019080803573ffffffffffffffffffffffffffffffffffffffff169060200190929190803573ffffffffffffffffffffffffffffffffffffffff169060200190929190505050610e3e565b6040518082815260200191505060405180910390f35b600080836040518082805190602001908083835b6020831061090657805182526020820191506020810190506020830392506108e3565b6001836020036101000a038019825116818451168082178552505050505050905001915050908152602001604051809103902060008373ffffffffffffffffffffffffffffffffffffffff1673ffffffffffffffffffffffffffffffffffffffff16815260200190815260200160002054905092915050565b600061098c338484610ec5565b6001905092915050565b6000600254905090565b60006109ae858585856110bc565b610a618433610a5c856040518060600160405280602881526020016116c760289139600160008b73ffffffffffffffffffffffffffffffffffffffff1673ffffffffffffffffffffffffffffffffffffffff16815260200190815260200160002060003373ffffffffffffffffffffffffffffffffffffffff1673ffffffffffffffffffffffffffffffffffffffff168152602001908152602001600020546115139092919063ffffffff16565b610ec5565b60019050949350505050565b6000610b083384610b0385600160003373ffffffffffffffffffffffffffffffffffffffff1673ffffffffffffffffffffffffffffffffffffffff16815260200190815260200160002060008973ffffffffffffffffffffffffffffffffffffffff1673ffffffffffffffffffffffffffffffffffffffff168152602001908152602001600020546115d390919063ffffffff16565b610ec5565b6001905092915050565b60078054600181600116156101000203166002900480601f016020809104026020016040519081016040528092919081815260200182805460018160011615610100020316600290048015610ba85780601f10610b7d57610100808354040283529160200191610ba8565b820191906000526020600020905b815481529060010190602001808311610b8b57829003601f168201915b505050505081565b600660149054906101000a900460ff1681565b60048054600181600116156101000203166002900480601f016020809104026020016040519081016040528092919081815260200182805460018160011615610100020316600290048015610c595780601f10610c2e57610100808354040283529160200191610c59565b820191906000526020600020905b815481529060010190602001808311610c3c57829003601f168201915b505050505081565b600082805160208101820180518482526020830160208501208183528095505050505050602052806000526040600020600091509150505481565b60055481565b600660009054906101000a900473ffffffffffffffffffffffffffffffffffffffff1681565b6000610d7d3384610d788560405180606001604052806025815260200161173860259139600160003373ffffffffffffffffffffffffffffffffffffffff1673ffffffffffffffffffffffffffffffffffffffff16815260200190815260200160002060008a73ffffffffffffffffffffffffffffffffffffffff1673ffffffffffffffffffffffffffffffffffffffff168152602001908152602001600020546115139092919063ffffffff16565b610ec5565b6001905092915050565b6000610d95843385856110bc565b600190509392505050565b60038054600181600116156101000203166002900480601f016020809104026020016040519081016040528092919081815260200182805460018160011615610100020316600290048015610e365780601f10610e0b57610100808354040283529160200191610e36565b820191906000526020600020905b815481529060010190602001808311610e1957829003601f168201915b505050505081565b6000600160008473ffffffffffffffffffffffffffffffffffffffff1673ffffffffffffffffffffffffffffffffffffffff16815260200190815260200160002060008373ffffffffffffffffffffffffffffffffffffffff1673ffffffffffffffffffffffffffffffffffffffff16815260200190815260200160002054905092915050565b600073ffffffffffffffffffffffffffffffffffffffff168373ffffffffffffffffffffffffffffffffffffffff161415610f4b576040517f08c379a00000000000000000000000000000000000000000000000000000000081526004018080602001828103825260248152602001806117146024913960400191505060405180910390fd5b600073ffffffffffffffffffffffffffffffffffffffff168273ffffffffffffffffffffffffffffffffffffffff161415610fd1576040517f08c379a000000000000000000000000000000000000000000000000000000000815260040180806020018281038252602281526020018061167f6022913960400191505060405180910390fd5b80600160008573ffffffffffffffffffffffffffffffffffffffff1673ffffffffffffffffffffffffffffffffffffffff16815260200190815260200160002060008473ffffffffffffffffffffffffffffffffffffffff1673ffffffffffffffffffffffffffffffffffffffff168152602001908152602001600020819055508173ffffffffffffffffffffffffffffffffffffffff168373ffffffffffffffffffffffffffffffffffffffff167f8c5be1e5ebec7d5bd14f71427d1e84f3dd0314c0f7b2291e5b200ac8c7c3b925836040518082815260200191505060405180910390a3505050565b600073ffffffffffffffffffffffffffffffffffffffff168373ffffffffffffffffffffffffffffffffffffffff161415611142576040517f08c379a00000000000000000000000000000000000000000000000000000000081526004018080602001828103825260258152602001806116ef6025913960400191505060405180910390fd5b600073ffffffffffffffffffffffffffffffffffffffff168273ffffffffffffffffffffffffffffffffffffffff1614156111c8576040517f08c379a000000000000000000000000000000000000000000000000000000000815260040180806020018281038252602381526020018061165c6023913960400191505060405180910390fd5b61129b816040518060600160405280602681526020016116a1602691396000876040518082805190602001908083835b6020831061121b57805182526020820191506020810190506020830392506111f8565b6001836020036101000a038019825116818451168082178552505050505050905001915050908152602001604051809103902060008773ffffffffffffffffffffffffffffffffffffffff1673ffffffffffffffffffffffffffffffffffffffff168152602001908152602001600020546115139092919063ffffffff16565b6000856040518082805190602001908083835b602083106112d157805182526020820191506020810190506020830392506112ae565b6001836020036101000a038019825116818451168082178552505050505050905001915050908152602001604051809103902060008573ffffffffffffffffffffffffffffffffffffffff1673ffffffffffffffffffffffffffffffffffffffff168152602001908152602001600020819055506113fe816000866040518082805190602001908083835b6020831061137f578051825260208201915060208101905060208303925061135c565b6001836020036101000a038019825116818451168082178552505050505050905001915050908152602001604051809103902060008573ffffffffffffffffffffffffffffffffffffffff1673ffffffffffffffffffffffffffffffffffffffff168152602001908152602001600020546115d390919063ffffffff16565b6000856040518082805190602001908083835b602083106114345780518252602082019150602081019050602083039250611411565b6001836020036101000a038019825116818451168082178552505050505050905001915050908152602001604051809103902060008473ffffffffffffffffffffffffffffffffffffffff1673ffffffffffffffffffffffffffffffffffffffff168152602001908152602001600020819055508173ffffffffffffffffffffffffffffffffffffffff168373ffffffffffffffffffffffffffffffffffffffff167fddf252ad1be2c89b69c2b068fc378daa952ba7f163c4a11628f55a4df523b3ef836040518082815260200191505060405180910390a350505050565b60008383111582906115c0576040517f08c379a00000000000000000000000000000000000000000000000000000000081526004018080602001828103825283818151815260200191508051906020019080838360005b8381101561158557808201518184015260208101905061156a565b50505050905090810190601f1680156115b25780820380516001836020036101000a031916815260200191505b509250505060405180910390fd5b5060008385039050809150509392505050565b600080828401905083811015611651576040517f08c379a000000000000000000000000000000000000000000000000000000000815260040180806020018281038252601b8152602001807f536166654d6174683a206164646974696f6e206f766572666c6f77000000000081525060200191505060405180910390fd5b809150509291505056fe45524332303a207472616e7366657220746f20746865207a65726f206164647265737345524332303a20617070726f766520746f20746865207a65726f206164647265737345524332303a207472616e7366657220616d6f756e7420657863656564732062616c616e636545524332303a207472616e7366657220616d6f756e74206578636565647320616c6c6f77616e636545524332303a207472616e736665722066726f6d20746865207a65726f206164647265737345524332303a20617070726f76652066726f6d20746865207a65726f206164647265737345524332303a2064656372656173656420616c6c6f77616e63652062656c6f77207a65726fa165627a7a72305820f2c348e278e0b1c1af88b014c6e47e0deb109bf90ec04810f0bf6a280b7d7c6f0029a165627a7a723058202ecddd8b23cb0272e57d218dd277a5f76fae772c865810512df1c5110fdacd250029",
  "source": "pragma solidity ^0.5.7;\nimport \"./LandCoin.sol\";\ncontract Factory\n{\n    LandCoin[] private childLandCoin;\n    \n    function createChildLandCoin(string memory _ownerName, string memory _id, string memory _assetType, uint8 _area, uint _noOfTokens) public\n    {\n        LandCoin newChildLandCoin = new LandCoin(_ownerName, _id, _assetType, _area, _noOfTokens,address(this));\n        childLandCoin.push(newChildLandCoin);\n    }\n    \n    function getChildLandCoin() public view returns(LandCoin[] memory)\n    {\n        return childLandCoin;\n    }\n}\n\n\n\n",
  "sourcePath": "/Users/heisenberg/Desktop/Git/eth2.3/contracts/Factory.sol",
  "compiler": {
    "name": "solc",
    "version": "0.5.8+commit.23d335f2.Emscripten.clang"
  },
  "schemaVersion": "3.0.11",
  "updatedAt": "2019-08-04T04:15:39.124Z",
  "devdoc": {
    "methods": {}
  },
  "userdoc": {
    "methods": {}
  }
}